:100000000C942E000C9440000C9440000C94400082
:100010000C9440000C9440000C9440000C94A600FA
:100020000C9440000C9440000C9440000C94680028
:100030000C9440000C9440000C9440000C94400040
:100040000C9440000C9440000C9440000C94400030
:100050000C9440000C9440000C94400011241FBEEE
:10006000CFEFD4E0DEBFCDBF21E0A0E0B1E001C022
:100070001D92A539B207E1F70E944C010C94040DC2
:100080000C9400008FEF8AB987B9259A269A11B887
:100090006A986B986C98739A729A82B908951092C4
:1000A0008000E1E8F0E0808188608083EFE6F0E0A6
:1000B000808182608083109289001092880084B5CC
:1000C000826084BDEEE6F0E08081816080830895E7
:1000D0001F920F920FB60F9211242F938F939F931D
:1000E0008091470190914801019690934801809337
:1000F0004701209164018091470190914801821B42
:100100009109909348018093470110926401809176
:100110006201909163010196909363018093620163
:10012000209146018091620190916301821B9109A7
:100130009093630180936201109246019F918F9189
:100140002F910F900FBE0F901F9018951F920F9236
:100150000FB60F921124CF92DF92EF92FF922F935E
:100160003F934F935F936F937F938F939F93AF933F
:10017000BF93EF93FF938091930180FF3DC095B1B2
:1001800080E2892785B980910C0190910D01A091A1
:100190000E01B0910F010196A11DB11D80930C01BC
:1001A00090930D01A0930E01B0930F0120913E0199
:1001B00030913F014091400150914101C0900C01AC
:1001C000D0900D01E0900E01F0900F01A8EEB3E089
:1001D0000E94EA0CC616D706E806F90608F447C0DE
:1001E00080914D0180FF43C01D9941C0E1E8F0E0DE
:1001F00080818D7F80833BC095B180E4892785B95C
:100200008091080190910901A0910A01B0910B0120
:100210000196A11DB11D8093080190930901A0933F
:100220000A01B0930B012091560130915701409182
:10023000580150915901C0900801D0900901E090F7
:100240000A01F0900B01A8EEB3E00E94EA0CC6167A
:10025000D706E806F90658F080914D0180FF07C0E7
:100260001E9905C0E1E8F0E080818D7F8083FF91D9
:10027000EF91BF91AF919F918F917F916F915F911E
:100280004F913F912F91FF90EF90DF90CF900F9083
:100290000FBE0F901F9018950E9442000E944F00C1
:1002A0008FEF8BB988B980914D01826080934D01A9
:1002B00080914D018E7F80934D01809193018160EB
:1002C000809393011092940178948DEC9CECACE4B3
:1002D000BEE380936D0190936E01A0936F01B09384
:1002E0007001C1E8D0E0EE24E3946894FF24F2F8B2
:1002F0000E2D12E086B5282F30E030931D0120939B
:100300001C0190E0A0E0B0E0409114015091150173
:10031000609116017091170184179507A607B7071A
:10032000F0F48091620190916301892BC1F4809176
:1003300046018F5F809346012091460180916201C2
:1003400090916301820F911DA0E0B0E080931801AD
:1003500090931901A0931A01B0931B0119C0209129
:10036000620130916301C901A0E0B0E080931801FF
:1003700090931901A0931A01B0931B01809162011F
:1003800090916301821B930B9093630180936201B0
:1003900080901C0190901D01A12CB12C809118011E
:1003A00090911901A0911A01B0911B01BA2FA92FA8
:1003B000982F8827880D991DAA1DBB1D40901401F8
:1003C000509015016090160170901701BC01CD018D
:1003D00064197509860997096093100170931101DA
:1003E0008093120190931301809214019092150151
:1003F000A0921601B09217010E9452046091100160
:100400007091110180911201909113010E941606C2
:1004100080914D0180FFA4C180919401823009F444
:100420006FC030F4882359F0813009F45FC098C15F
:10043000833009F4E7C0843009F4ECC091C18091A5
:100440004D0182FD03C0009394018AC140910001D7
:10045000509101016091020170910301809110019E
:1004600090911101A0911201B0911301840F951F79
:10047000A61FB71F8093000190930101A093020172
:10048000B09303016091000170910101809102011C
:10049000909103010E94A40B4B015C0120E030E528
:1004A00043E458E46091710170917201809173018D
:1004B000909174010E945B0C20E030E040E251E436
:1004C0000E945B0C9B01AC01C501B4010E94560C5B
:1004D00088230CF445C11092000110920101109282
:1004E000020110920301109394013AC10E94A606E2
:1004F00080914D01846080934D011093940130C12F
:10050000409100015091010160910201709103013D
:100510008091100190911101A0911201B0911301ED
:10052000840F951FA61FB71F8093000190930101B0
:10053000A0930201B0930301809100019091010109
:10054000A0910201B091030180349D40A340B10508
:1005500008F406C1109200011092010110920201EC
:10056000109203010E94A1072091420130914301A2
:10057000409144015091450180900C0190900D01F3
:10058000A0900E01B0900F01A8EEB3E00E94EA0C1B
:1005900086169706A806B90620F08091930180FD83
:1005A0001EC02091490130914A0140914B01509168
:1005B0004C018090080190900901A0900A01B09030
:1005C0000B01A8EEB3E00E94EA0C86169706A80677
:1005D000B90608F4C5C08091930180FDC1C0809127
:1005E0004D01826080934D0180914D018E7F8093FB
:1005F0004D01109204011092050110920601109213
:100600000701AEC00E948408892B09F4A9C0F092AA
:100610009401A6C040910001509101016091020136
:10062000709103018091100190911101A09112012C
:10063000B0911301840F951FA61FB71F809300016F
:1006400090930101A0930201B093030180910001F6
:1006500090910101A0910201B091030180349D406D
:10066000A340B10508F47CC0109200011092010172
:1006700010920201109203010E949B09888181FD62
:100680006FC01092940110920C0110920D01109203
:100690000E0110920F0110920801109209011092A0
:1006A0000A0110920B011092310110923201109246
:1006B00033011092340110923501109236011092DC
:1006C0003701109238018091930180FD44C08091E0
:1006D000040190910501A0910601B09107010196D6
:1006E000A11DB11D8093040190930501A093060103
:1006F000B0930701409104015091050160910601FA
:100700007091070180915A0190915B01A0915C0169
:10071000B0915D01481759076A077B07E0F0109216
:1007200004011092050110920601109207018091B8
:100730004D01826080934D0180914D018E7F8093A9
:100740004D0180914D018B7F80934D0180919301EC
:10075000816080939301809193018E258093930112
:1007600080914D0181FFC6CD809194018823A9F12C
:1007700040910001509101016091020170910301CB
:100780008091100190911101A0911201B09113017B
:10079000840F951FA61FB71F80930001909301013E
:1007A000A0930201B0930301809100019091010197
:1007B000A0910201B091030180349D40A340B10596
:1007C00008F498CD109200011092010110920201DC
:1007D000109203010E949B098DCD10920C01109282
:1007E0000D0110920E0110920F011092080110924B
:1007F000090110920A0110920B011092310110921E
:10080000320110923301109234011092350110928E
:1008100036011092370110923801109204011092A3
:10082000050110920601109207012D982E988091D3
:10083000930181608093930180914D018B7F809320
:100840004D0158CD8230B1F028F4882349F0813031
:1008500061F024C08430C1F090F08530D1F01EC02A
:1008600061E070E080E090E008956AE070E080E090
:1008700090E0089564E670E080E090E0089568EE0E
:1008800073E080E090E0089560E177E280E090E03E
:10089000089560EA76E881E090E0089560E070E015
:1008A000CB0108954F925F926F927F928F929F92A9
:1008B000AF92BF92CF92DF92EF92FF921F93CF93AE
:1008C000DF9320914D0121FFA1C1C0902A01D0905A
:1008D0002B01E0902C01F0902D01DC01CB018C0D5F
:1008E0009D1DAE1DBF1D80322EE49207A105B105EE
:1008F00048F480932A0190932B01A0932C01B0938C
:100900002D0184C110922A0110922B0110922C010A
:1009100010922D0180912F01883008F049C03FEFDF
:100920003BB92BB181E090E000902F0102C0880F0D
:10093000991F0A94E2F7809582238BB938B9809188
:10094000260190912701A0912801B09129010196DB
:10095000A11DB11D82309105A105B10548F4809318
:10096000260190932701A0932801B09329014EC13D
:10097000109226011092270110922801109229014D
:1009800080B180958093300190912F01292F30E024
:10099000F901EB58FE4F482F4F704083F901E058A2
:1009A000FE4F82958F7080839F5F90932F012EC1A1
:1009B00080912E01833008F04DC03FEF38B928B147
:1009C00081E090E000902E0102C0880F991F0A94E8
:1009D000E2F78095822388B93BB9809126019091F6
:1009E0002701A0912801B09129010196A11DB11DF7
:1009F00082309105A105B10548F4809326019093BA
:100A00002701A0932801B093290100C1109226016B
:100A100010922701109228011092290180B180952F
:100A20008093300190912E0140912F01292F30E0C9
:100A3000240F311DF901EB58FE4F482F4F704083B2
:100A4000F901E058FE4F82958F7080839F5F9093ED
:100A50002E01DCC010922F0110922E0180914D01C9
:100A60008D7F80934D0110924E0110924F01109294
:100A700050011092510110924201109243011092C4
:100A80004401109245011092490110924A011092BE
:100A90004B0110924C01109252011092530110928E
:100AA0005401109255010F2EF5E7CF2EF1E0DF2E05
:100AB000F02D0F2EF0E8EF2EF1E0FF2EF02D1BEFC2
:100AC000C0E0D0E0C530D105C4F58C2F0E942204CF
:100AD00080904E0190904F01A0905001B090510134
:100AE000F601A081B0E09B01AC010E94EA0C860EE9
:100AF000971EA81EB91E80924E0190924F01A0929F
:100B00005001B09251018090490190904A01A0900B
:100B10004B01B0904C01F701A081B0E00E94EA0CBB
:100B2000860E971EA81EB91E8092490190924A0116
:100B3000A0924B01B0924C0159C0CA30D105C4F506
:100B4000812F0E9422048090420190904301A09046
:100B50004401B0904501F601A081B0E09B01AC01D9
:100B60000E94EA0C860E971EA81EB91E80924201B2
:100B700090924301A0924401B092450180905201AD
:100B800090905301A0905401B0905501F701A081BD
:100B9000B0E00E94EA0C860E971EA81EB91E809235
:100BA000520190925301A0925401B09255011EC07F
:100BB000812F0E9422049B01AC01809052019090F1
:100BC0005301A0905401B0905501F701A081B0E00D
:100BD0000E94EA0C860E971EA81EB91E8092520132
:100BE00090925301A0925401B09255012196FFEFCB
:100BF000CF1ADF0A2FEFE21AF20A1F5F173009F04F
:100C000061CF80914D01826080934D01DF91CF9142
:100C10001F91FF90EF90DF90CF90BF90AF909F908B
:100C20008F907F906F905F904F9008950F931F93D8
:100C300020914D0121FF46C062993CC000914E01B8
:100C400010914F012091500130915101012B022B45
:100C5000032B81F120914D0120FD34C00091220130
:100C6000109123012091240130912501060F171FB7
:100C7000281F391F00932201109323012093240180
:100C80003093250100321E4421053105D8F0209112
:100C90004D01216020934D0120914D012D7F209326
:100CA0004D01109222011092230110922401109202
:100CB000250108C0109222011092230110922401F4
:100CC0001092250120914D0120FF3DC00000639945
:100CD00032C020914D0121FD36C000911E011091BE
:100CE0001F012091200130912101AB01BC01400F77
:100CF000511F621F731F40931E0150931F01609389
:100D000020017093210140325E4461057105D8F0E5
:100D100080914D01826080934D0180914D018E7FC5
:100D200080934D0110921E0110921F01109220011C
:100D30001092210108C010921E0110921F01109202
:100D40002001109221011F910F91089580914E0171
:100D500090914F01A0915001B09151010297A105CE
:100D6000B10548F080914E0190914F01A091500142
:100D7000B091510104C082E090E0A0E0B0E0809327
:100D80004E0190934F01A0935001B0935101809177
:100D90004E0190914F01A0915001B0915101813DC0
:100DA0009740A105B10548F480914E0190914F0103
:100DB000A0915001B091510104C080ED97E0A0E0F6
:100DC000B0E08093650190936601A0936701B093B2
:100DD00068018091420190914301A0914401B0913A
:100DE000450180933E0190933F01A0934001B09351
:100DF00041018091490190914A01A0914B01B0912C
:100E00004C018093560190935701A0935801B093E1
:100E100059018091520190915301A0915401B091D8
:100E2000550180935A0190935B01A0935C01B093AC
:100E30005D018091650190916601A0916701B0917B
:100E400068014497A105B10548F410926901109218
:100E50006A0110926B0110926C0125C080916501AE
:100E600090916601A0916701B0916801C297A105B8
:100E7000B10568F480E090E0A0E8BFE380936901E9
:100E800090936A01A0936B01B0936C010CC080E059
:100E900090E0A0E8B0E48093690190936A01A09388
:100EA0006B01B0936C0180916D0190916E01A091E6
:100EB0006F01B09170018093710190937201A093C2
:100EC0007301B093740120E030E040E251E460919E
:100ED000690170916A0180916B0190916C010E948F
:100EE0005B0C0E94750B9B01AC0160938B017093AE
:100EF0008C0180938D0190938E01609165017091BA
:100F0000660180916701909168010E94C80C20934E
:100F1000390130933A0140933B0150933C01809159
:100F20003E0190913F01A0914001B0914101892B78
:100F30008A2B8B2B29F4809193018E7F80939301D0
:100F4000089520E030E0A9016091690170916A0183
:100F500080916B0190916C010E94FE0A811147C043
:100F60008091650190916601A0916701B09168013F
:100F70008093350190933601A0933701B0933801E7
:100F8000609135017091360180913701909138015F
:100F90000E94A40B26EF3DEC4BE057E30E945B0C54
:100FA0009B01AC0160E070E080E89FE30E94030BCE
:100FB00020E030E040E85FE30E94910A0E94750B58
:100FC000E8E8F0E07183608320918400309185002F
:100FD000808191818217930720F4109285001092EE
:100FE0008400E1E8F0E08081826080831CC0409151
:100FF000390150913A0160913B0170913C0180911F
:10100000350190913601A0913701B0913801840FDC
:10101000951FA61FB71F8093350190933601A093AB
:101020003701B093380140913501509136016091FC
:101030003701709138018091650190916601A0910E
:101040006701B0916801481759076A077B07C8F51F
:10105000609135017091360180913701909138018E
:101060000E94A40B26EF3DEC4BE057E30E945B0C83
:101070009B01AC0160E070E080E89FE30E94030BFD
:1010800020E030E040E85FE30E94910A0E94750B87
:10109000E8E8F0E07183608320918400309185005E
:1010A000808191818217930720F41092850010921D
:1010B0008400E1E8F0E080818260808380E090E05D
:1010C00008958091930180FD09C08091080190915D
:1010D0000901A0910A01B0910B0108C080910C0197
:1010E00090910D01A0910E01B0910F0180933101FB
:1010F00090933201A0933301B093340183E0809345
:10110000940181E090E008954F925F926F927F92F8
:101110008F929F92AF92BF92CF92DF92EF92FF9207
:1011200060916501709166018091670190916801FD
:101130000E94A40B26EF3DEC4BE057E30E945B0CB2
:101140009B01AC0160E070E080E89FE30E94030B2C
:1011500020E030E040E85FE30E94910A0E94750BB6
:10116000709389006093880060910C0170910D016B
:1011700080910E0190910F0180903E0190903F016F
:10118000A0904001B0904101409031015090320157
:1011900060903301709034010E94A40B6B017C01BC
:1011A000A8EEB3E0A50194010E94EA0C0E94A40BF2
:1011B0004B015C01C301B2010E94A40B2CE53FE886
:1011C00042E85FE30E945B0C9B01AC01C501B401E6
:1011D0000E94910A9B01AC01C701B6010E94560C06
:1011E000882324F08091930180FD45C0609108011F
:1011F0007091090180910A0190910B018090560134
:1012000090905701A0905801B09059014090310141
:101210005090320160903301709034010E94A40B11
:101220006B017C01A8EEB3E0A50194010E94EA0CD9
:101230000E94A40B4B015C01C301B2010E94A40BEC
:101240002CE53FE842E85FE30E945B0C9B01AC01A8
:10125000C501B4010E94910A9B01AC01C701B6010E
:101260000E94560C882354F0E091930181E0E82716
:10127000E170F0E005C0E1E0F0E002C0E0E0F0E0A5
:10128000C0903101D0903201E0903301F0903401F0
:1012900020913E0130913F01409140015091410128
:1012A000CC0CDD1CEE1CFF1CA8EEB3E00E94EA0C87
:1012B0006C157D058E059F0520F48091930180FDBE
:1012C00021C0C0903101D0903201E0903301F09004
:1012D00034012091560130915701409158015091AD
:1012E0005901CC0CDD1CEE1CFF1CA8EEB3E00E94E3
:1012F000EA0C6C157D058E059F0570F480919301B5
:1013000080FD0AC080914D01826080934D018091E3
:101310004D018E7F80934D018E2F9F2FFF90EF9078
:10132000DF90CF90BF90AF909F908F907F906F9005
:101330005F904F900895CF92DF92EF92FF9280914D
:101340004D0180FF4FC040913501509136016091B1
:101350003701709138018091390190913A01A09143
:101360003B01B0913C0184179507A607B707D0F55C
:1013700020913E0130913F01409140015091410147
:10138000C0900C01D0900D01E0900E01F0900F0183
:10139000A8EEB3E00E94EA0C6C157D058E059F0552
:1013A00020F08091930180FD37C02091560130914B
:1013B00057014091580150915901C0900801D090B7
:1013C0000901E0900A01F0900B01A8EEB3E00E9441
:1013D000EA0C6C157D058E059F0520F08091930128
:1013E00080FF1AC080914D0181FF57C040913501A7
:1013F0005091360160913701709138018091390127
:1014000090913A01A0913B01B0913C01841795075E
:10141000A607B70708F041C04091390150913A0141
:1014200060913B0170913C018091350190913601B2
:10143000A0913701B0913801841B950BA60BB70B17
:101440008093350190933601A0933701B093380112
:10145000609135017091360180913701909138018A
:101460000E94A40B26EF3DEC4BE057E30E945B0C7F
:101470009B01AC0160E070E080E89FE30E94030BF9
:1014800020E030E040E85FE30E94910A0E94750B83
:1014900070938900609388003FC080914D0181FF67
:1014A0003BC0E1E8F0E080818D7F80831092940161
:1014B00010920C0110920D0110920E0110920F016A
:1014C000109208011092090110920A0110920B016A
:1014D00010923101109232011092330110923401B6
:1014E0001092350110923601109237011092380196
:1014F000109204011092050110920601109207014A
:101500002D982E9880919301816080939301809112
:101510004D018B7F80934D01FF90EF90DF90CF9036
:1015200008955058BB27AA270E94A90A0C941C0CA6
:101530000E940E0C38F00E94150C20F039F49F3FE9
:1015400019F426F40C940B0C0EF4E095E7FB0C94C4
:10155000050CE92F0E942D0C58F3BA176207730788
:101560008407950720F079F4A6F50C944F0C0EF43F
:10157000E0950B2EBA2FA02D0B01B90190010C01A3
:10158000CA01A0011124FF27591B99F0593F50F4BB
:10159000503E68F11A16F040A22F232F342F442713
:1015A000585FF3CF469537952795A795F04053950B
:1015B000C9F77EF41F16BA0B620B730B840BBAF0DB
:1015C0009150A1F0FF0FBB1F661F771F881FC2F746
:1015D0000EC0BA0F621F731F841F48F4879577955A
:1015E0006795B795F7959E3F08F0B0CF9395880F14
:1015F00008F09927EE0F9795879508950E94E10BC3
:1016000008F481E008950E94170B0C941C0C0E94B2
:10161000150C58F00E940E0C40F029F45F3F29F0A1
:101620000C94050C51110C94500C0C940B0C0E9452
:101630002D0C68F39923B1F3552391F3951B550BAA
:10164000BB27AA2762177307840738F09F5F5F4F95
:10165000220F331F441FAA1FA9F335D00E2E3AF0D4
:10166000E0E832D091505040E695001CCAF72BD0EC
:10167000FE2F29D0660F771F881FBB1F261737073D
:101680004807AB07B0E809F0BB0B802DBF01FF276F
:1016900093585F4F3AF09E3F510578F00C94050C3B
:1016A0000C94500C5F3FE4F3983ED4F38695779505
:1016B0006795B795F7959F5FC9F7880F911D969528
:1016C000879597F90895E1E0660F771F881FBB1F84
:1016D000621773078407BA0720F0621B730B840B31
:1016E000BA0BEE1F88F7E09508950E94350C88F03C
:1016F0009F5798F0B92F9927B751B0F0E1F0660FD6
:10170000771F881F991F1AF0BA95C9F714C0B13016
:1017100091F00E944F0CB1E008950C944F0C672F8C
:10172000782F8827B85F39F0B93FCCF38695779545
:101730006795B395D9F73EF490958095709561952E
:101740007F4F8F4F9F4F0895E89409C097FB3EF459
:1017500090958095709561957F4F8F4F9F4F9923FE
:10176000A9F0F92F96E9BB279395F695879577957C
:101770006795B795F111F8CFFAF4BB0F11F460FF3C
:101780001BC06F5F7F4F8F4F9F4F16C0882311F094
:1017900096E911C0772321F09EE8872F762F05C0A8
:1017A000662371F096E8862F70E060E02AF09A9543
:1017B000660F771F881FDAF7880F9695879597F938
:1017C0000895990F0008550FAA0BE0E8FEEF1616D2
:1017D0001706E807F907C0F012161306E407F50725
:1017E00098F0621B730B840B950B39F40A2661F099
:1017F000232B242B252B21F408950A2609F4A1403C
:10180000A6958FEF811D811D089597F99F6780E848
:1018100070E060E008959FEF80EC089500240A9442
:101820001616170618060906089500240A941216BB
:101830001306140605060895092E0394000C11F4EE
:10184000882352F0BB0F40F4BF2B11F460FF04C09B
:101850006F5F7F4F8F4F9F4F089557FD9058440FF4
:10186000551F59F05F3F71F04795880F97FB991FFF
:1018700061F09F3F79F087950895121613061406BC
:10188000551FF2CF4695F1DF08C016161706180649
:10189000991FF1CF86957105610508940895E89424
:1018A000BB2766277727CB0197F908950E94E10BA4
:1018B00008F48FEF08950E946E0C0C941C0C0E948B
:1018C0000E0C38F00E94150C20F0952311F00C94AA
:1018D000050C0C940B0C11240C94500C0E942D0C34
:1018E00070F3959FC1F3950F50E0551F629FF00173
:1018F000729FBB27F00DB11D639FAA27F00DB11D8C
:10190000AA1F649F6627B00DA11D661F829F222714
:10191000B00DA11D621F739FB00DA11D621F839F9B
:10192000A00D611D221F749F3327A00D611D231F71
:10193000849F600D211D822F762F6A2F11249F57BF
:1019400050409AF0F1F088234AF0EE0FFF1FBB1FC2
:10195000661F771F881F91505040A9F79E3F510581
:1019600080F00C94050C0C94500C5F3FE4F3983E0F
:10197000D4F3869577956795B795F795E7959F5F2B
:10198000C1F7FE2B880F911D9695879597F90895BD
:10199000A1E21A2EAA1BBB1BFD010DC0AA1FBB1F73
:1019A000EE1FFF1FA217B307E407F50720F0A21BE5
:1019B000B30BE40BF50B661F771F881F991F1A9452
:1019C00069F760957095809590959B01AC01BD017C
:1019D000CF0108950E94F50CA59F900DB49F900D26
:1019E000A49F800D911D11240895A29FB001B39F63
:1019F000C001A39F700D811D1124911DB29F700D18
:0C1A0000811D1124911D0895F894FFCF62
:00000001FF
